:100000000C9434000C943E000C943E000C943E0082
:100010000C943E000C943E000C943E000C943E0068
:100020000C943E000C943E000C943E000C943E0058
:100030000C943E000C943E000C943E000C943E0048
:100040000C943E000C943E000C943E000C943E0038
:100050000C943E000C943E000C943E000C943E0028
:100060000C943E000C943E0011241FBECFEFD8E04C
:10007000DEBFCDBF0E9440000C945F000C940000D6
:100080008FEF87B9569891E081E041E029B1322F96
:10009000307426FD0CC0992351F084272FEF51EEC8
:1000A00094E0215050409040E1F700C000008130C2
:1000B00011F098E301C097E098B9932FE7CFF89437
:0200C000FFCF70
:00000001FF
